{
  "_format": "hh-sol-artifact-1",
  "contractName": "NFTRoyalty",
  "sourceName": "src/backend/contracts/NFTroyality.sol",
  "abi": [
    {
      "inputs": [
        {
          "internalType": "string",
          "name": "name",
          "type": "string"
        },
        {
          "internalType": "string",
          "name": "symbol",
          "type": "string"
        }
      ],
      "stateMutability": "nonpayable",
      "type": "constructor"
    },
    {
      "anonymous": false,
      "inputs": [
        {
          "indexed": true,
          "internalType": "address",
          "name": "owner",
          "type": "address"
        },
        {
          "indexed": true,
          "internalType": "address",
          "name": "approved",
          "type": "address"
        },
        {
          "indexed": true,
          "internalType": "uint256",
          "name": "tokenId",
          "type": "uint256"
        }
      ],
      "name": "Approval",
      "type": "event"
    },
    {
      "anonymous": false,
      "inputs": [
        {
          "indexed": true,
          "internalType": "address",
          "name": "owner",
          "type": "address"
        },
        {
          "indexed": true,
          "internalType": "address",
          "name": "operator",
          "type": "address"
        },
        {
          "indexed": false,
          "internalType": "bool",
          "name": "approved",
          "type": "bool"
        }
      ],
      "name": "ApprovalForAll",
      "type": "event"
    },
    {
      "anonymous": false,
      "inputs": [
        {
          "indexed": true,
          "internalType": "address",
          "name": "from",
          "type": "address"
        },
        {
          "indexed": true,
          "internalType": "address",
          "name": "to",
          "type": "address"
        },
        {
          "indexed": true,
          "internalType": "uint256",
          "name": "tokenId",
          "type": "uint256"
        }
      ],
      "name": "Transfer",
      "type": "event"
    },
    {
      "inputs": [
        {
          "internalType": "address",
          "name": "to",
          "type": "address"
        },
        {
          "internalType": "uint256",
          "name": "tokenId",
          "type": "uint256"
        }
      ],
      "name": "approve",
      "outputs": [],
      "stateMutability": "nonpayable",
      "type": "function"
    },
    {
      "inputs": [
        {
          "internalType": "address",
          "name": "owner",
          "type": "address"
        }
      ],
      "name": "balanceOf",
      "outputs": [
        {
          "internalType": "uint256",
          "name": "",
          "type": "uint256"
        }
      ],
      "stateMutability": "view",
      "type": "function"
    },
    {
      "inputs": [
        {
          "internalType": "uint256",
          "name": "tokenId",
          "type": "uint256"
        }
      ],
      "name": "getApproved",
      "outputs": [
        {
          "internalType": "address",
          "name": "",
          "type": "address"
        }
      ],
      "stateMutability": "view",
      "type": "function"
    },
    {
      "inputs": [],
      "name": "getRoyalty",
      "outputs": [
        {
          "internalType": "uint256",
          "name": "",
          "type": "uint256"
        }
      ],
      "stateMutability": "view",
      "type": "function"
    },
    {
      "inputs": [
        {
          "internalType": "address",
          "name": "owner",
          "type": "address"
        },
        {
          "internalType": "address",
          "name": "operator",
          "type": "address"
        }
      ],
      "name": "isApprovedForAll",
      "outputs": [
        {
          "internalType": "bool",
          "name": "",
          "type": "bool"
        }
      ],
      "stateMutability": "view",
      "type": "function"
    },
    {
      "inputs": [],
      "name": "name",
      "outputs": [
        {
          "internalType": "string",
          "name": "",
          "type": "string"
        }
      ],
      "stateMutability": "view",
      "type": "function"
    },
    {
      "inputs": [
        {
          "internalType": "uint256",
          "name": "tokenId",
          "type": "uint256"
        }
      ],
      "name": "ownerOf",
      "outputs": [
        {
          "internalType": "address",
          "name": "",
          "type": "address"
        }
      ],
      "stateMutability": "view",
      "type": "function"
    },
    {
      "inputs": [],
      "name": "royalty",
      "outputs": [
        {
          "internalType": "uint256",
          "name": "",
          "type": "uint256"
        }
      ],
      "stateMutability": "view",
      "type": "function"
    },
    {
      "inputs": [
        {
          "internalType": "address",
          "name": "from",
          "type": "address"
        },
        {
          "internalType": "address",
          "name": "to",
          "type": "address"
        },
        {
          "internalType": "uint256",
          "name": "tokenId",
          "type": "uint256"
        }
      ],
      "name": "safeTransferFrom",
      "outputs": [],
      "stateMutability": "nonpayable",
      "type": "function"
    },
    {
      "inputs": [
        {
          "internalType": "address",
          "name": "from",
          "type": "address"
        },
        {
          "internalType": "address",
          "name": "to",
          "type": "address"
        },
        {
          "internalType": "uint256",
          "name": "tokenId",
          "type": "uint256"
        },
        {
          "internalType": "bytes",
          "name": "_data",
          "type": "bytes"
        }
      ],
      "name": "safeTransferFrom",
      "outputs": [],
      "stateMutability": "nonpayable",
      "type": "function"
    },
    {
      "inputs": [
        {
          "internalType": "address",
          "name": "operator",
          "type": "address"
        },
        {
          "internalType": "bool",
          "name": "approved",
          "type": "bool"
        }
      ],
      "name": "setApprovalForAll",
      "outputs": [],
      "stateMutability": "nonpayable",
      "type": "function"
    },
    {
      "inputs": [
        {
          "internalType": "uint256",
          "name": "newRoyalty",
          "type": "uint256"
        }
      ],
      "name": "setRoyalty",
      "outputs": [],
      "stateMutability": "nonpayable",
      "type": "function"
    },
    {
      "inputs": [
        {
          "internalType": "bytes4",
          "name": "interfaceId",
          "type": "bytes4"
        }
      ],
      "name": "supportsInterface",
      "outputs": [
        {
          "internalType": "bool",
          "name": "",
          "type": "bool"
        }
      ],
      "stateMutability": "view",
      "type": "function"
    },
    {
      "inputs": [],
      "name": "symbol",
      "outputs": [
        {
          "internalType": "string",
          "name": "",
          "type": "string"
        }
      ],
      "stateMutability": "view",
      "type": "function"
    },
    {
      "inputs": [
        {
          "internalType": "uint256",
          "name": "tokenId",
          "type": "uint256"
        }
      ],
      "name": "tokenURI",
      "outputs": [
        {
          "internalType": "string",
          "name": "",
          "type": "string"
        }
      ],
      "stateMutability": "view",
      "type": "function"
    },
    {
      "inputs": [
        {
          "internalType": "address",
          "name": "from",
          "type": "address"
        },
        {
          "internalType": "address",
          "name": "to",
          "type": "address"
        },
        {
          "internalType": "uint256",
          "name": "tokenId",
          "type": "uint256"
        }
      ],
      "name": "transferFrom",
      "outputs": [],
      "stateMutability": "nonpayable",
      "type": "function"
    }
  ],
  "bytecode": "0x60806040523480156200001157600080fd5b50604051620027fc380380620027fc83398181016040528101906200003791906200019f565b81818160009080519060200190620000519291906200007d565b5080600190805190602001906200006a9291906200007d565b505050600a600681905550505062000382565b8280546200008b90620002a7565b90600052602060002090601f016020900481019282620000af5760008555620000fb565b82601f10620000ca57805160ff1916838001178555620000fb565b82800160010185558215620000fb579182015b82811115620000fa578251825591602001919060010190620000dd565b5b5090506200010a91906200010e565b5090565b5b80821115620001295760008160009055506001016200010f565b5090565b6000620001446200013e846200023b565b62000212565b9050828152602081018484840111156200015d57600080fd5b6200016a84828562000271565b509392505050565b600082601f8301126200018457600080fd5b8151620001968482602086016200012d565b91505092915050565b60008060408385031215620001b357600080fd5b600083015167ffffffffffffffff811115620001ce57600080fd5b620001dc8582860162000172565b925050602083015167ffffffffffffffff811115620001fa57600080fd5b620002088582860162000172565b9150509250929050565b60006200021e62000231565b90506200022c8282620002dd565b919050565b6000604051905090565b600067ffffffffffffffff82111562000259576200025862000342565b5b620002648262000371565b9050602081019050919050565b60005b838110156200029157808201518184015260208101905062000274565b83811115620002a1576000848401525b50505050565b60006002820490506001821680620002c057607f821691505b60208210811415620002d757620002d662000313565b5b50919050565b620002e88262000371565b810181811067ffffffffffffffff821117156200030a576200030962000342565b5b80604052505050565b7f4e487b7100000000000000000000000000000000000000000000000000000000600052602260045260246000fd5b7f4e487b7100000000000000000000000000000000000000000000000000000000600052604160045260246000fd5b6000601f19601f8301169050919050565b61246a80620003926000396000f3fe608060405234801561001057600080fd5b50600436106101005760003560e01c80634d47732a11610097578063a22cb46511610066578063a22cb465146102ad578063b88d4fde146102c9578063c87b56dd146102e5578063e985e9c51461031557610100565b80634d47732a146102115780636352211e1461022f57806370a082311461025f57806395d89b411461028f57610100565b806323b872dd116100d357806323b872dd1461019f57806329ee566c146101bb5780634209a2e1146101d957806342842e0e146101f557610100565b806301ffc9a71461010557806306fdde0314610135578063081812fc14610153578063095ea7b314610183575b600080fd5b61011f600480360381019061011a9190611744565b610345565b60405161012c9190611abe565b60405180910390f35b61013d610427565b60405161014a9190611ad9565b60405180910390f35b61016d60048036038101906101689190611796565b6104b9565b60405161017a9190611a57565b60405180910390f35b61019d60048036038101906101989190611708565b61053e565b005b6101b960048036038101906101b49190611602565b610656565b005b6101c36106b6565b6040516101d09190611c7b565b60405180910390f35b6101f360048036038101906101ee9190611796565b6106bc565b005b61020f600480360381019061020a9190611602565b6106c6565b005b6102196106e6565b6040516102269190611c7b565b60405180910390f35b61024960048036038101906102449190611796565b6106f0565b6040516102569190611a57565b60405180910390f35b6102796004803603810190610274919061159d565b6107a2565b6040516102869190611c7b565b60405180910390f35b61029761085a565b6040516102a49190611ad9565b60405180910390f35b6102c760048036038101906102c291906116cc565b6108ec565b005b6102e360048036038101906102de9190611651565b610902565b005b6102ff60048036038101906102fa9190611796565b610964565b60405161030c9190611ad9565b60405180910390f35b61032f600480360381019061032a91906115c6565b610a0b565b60405161033c9190611abe565b60405180910390f35b60007f80ac58cd000000000000000000000000000000000000000000000000000000007bffffffffffffffffffffffffffffffffffffffffffffffffffffffff1916827bffffffffffffffffffffffffffffffffffffffffffffffffffffffff1916148061041057507f5b5e139f000000000000000000000000000000000000000000000000000000007bffffffffffffffffffffffffffffffffffffffffffffffffffffffff1916827bffffffffffffffffffffffffffffffffffffffffffffffffffffffff1916145b80610420575061041f82610a9f565b5b9050919050565b60606000805461043690611ea0565b80601f016020809104026020016040519081016040528092919081815260200182805461046290611ea0565b80156104af5780601f10610484576101008083540402835291602001916104af565b820191906000526020600020905b81548152906001019060200180831161049257829003601f168201915b5050505050905090565b60006104c482610b09565b610503576040517f08c379a00000000000000000000000000000000000000000000000000000000081526004016104fa90611bfb565b60405180910390fd5b6004600083815260200190815260200160002060009054906101000a900473ffffffffffffffffffffffffffffffffffffffff169050919050565b6000610549826106f0565b90508073ffffffffffffffffffffffffffffffffffffffff168373ffffffffffffffffffffffffffffffffffffffff1614156105ba576040517f08c379a00000000000000000000000000000000000000000000000000000000081526004016105b190611c3b565b60405180910390fd5b8073ffffffffffffffffffffffffffffffffffffffff166105d9610b75565b73ffffffffffffffffffffffffffffffffffffffff161480610608575061060781610602610b75565b610a0b565b5b610647576040517f08c379a000000000000000000000000000000000000000000000000000000000815260040161063e90611b9b565b60405180910390fd5b6106518383610b7d565b505050565b610667610661610b75565b82610c36565b6106a6576040517f08c379a000000000000000000000000000000000000000000000000000000000815260040161069d90611c5b565b60405180910390fd5b6106b1838383610d14565b505050565b60065481565b8060068190555050565b6106e183838360405180602001604052806000815250610902565b505050565b6000600654905090565b6000806002600084815260200190815260200160002060009054906101000a900473ffffffffffffffffffffffffffffffffffffffff169050600073ffffffffffffffffffffffffffffffffffffffff168173ffffffffffffffffffffffffffffffffffffffff161415610799576040517f08c379a000000000000000000000000000000000000000000000000000000000815260040161079090611bdb565b60405180910390fd5b80915050919050565b60008073ffffffffffffffffffffffffffffffffffffffff168273ffffffffffffffffffffffffffffffffffffffff161415610813576040517f08c379a000000000000000000000000000000000000000000000000000000000815260040161080a90611bbb565b60405180910390fd5b600360008373ffffffffffffffffffffffffffffffffffffffff1673ffffffffffffffffffffffffffffffffffffffff168152602001908152602001600020549050919050565b60606001805461086990611ea0565b80601f016020809104026020016040519081016040528092919081815260200182805461089590611ea0565b80156108e25780601f106108b7576101008083540402835291602001916108e2565b820191906000526020600020905b8154815290600101906020018083116108c557829003601f168201915b5050505050905090565b6108fe6108f7610b75565b8383610f7b565b5050565b61091361090d610b75565b83610c36565b610952576040517f08c379a000000000000000000000000000000000000000000000000000000000815260040161094990611c5b565b60405180910390fd5b61095e848484846110e8565b50505050565b606061096f82610b09565b6109ae576040517f08c379a00000000000000000000000000000000000000000000000000000000081526004016109a590611c1b565b60405180910390fd5b60006109b8611144565b905060008151116109d85760405180602001604052806000815250610a03565b806109e28461115b565b6040516020016109f3929190611a33565b6040516020818303038152906040525b915050919050565b6000600560008473ffffffffffffffffffffffffffffffffffffffff1673ffffffffffffffffffffffffffffffffffffffff16815260200190815260200160002060008373ffffffffffffffffffffffffffffffffffffffff1673ffffffffffffffffffffffffffffffffffffffff16815260200190815260200160002060009054906101000a900460ff16905092915050565b60007f01ffc9a7000000000000000000000000000000000000000000000000000000007bffffffffffffffffffffffffffffffffffffffffffffffffffffffff1916827bffffffffffffffffffffffffffffffffffffffffffffffffffffffff1916149050919050565b60008073ffffffffffffffffffffffffffffffffffffffff166002600084815260200190815260200160002060009054906101000a900473ffffffffffffffffffffffffffffffffffffffff1673ffffffffffffffffffffffffffffffffffffffff1614159050919050565b600033905090565b816004600083815260200190815260200160002060006101000a81548173ffffffffffffffffffffffffffffffffffffffff021916908373ffffffffffffffffffffffffffffffffffffffff160217905550808273ffffffffffffffffffffffffffffffffffffffff16610bf0836106f0565b73ffffffffffffffffffffffffffffffffffffffff167f8c5be1e5ebec7d5bd14f71427d1e84f3dd0314c0f7b2291e5b200ac8c7c3b92560405160405180910390a45050565b6000610c4182610b09565b610c80576040517f08c379a0000000000000000000000000000000000000000000000000000000008152600401610c7790611b7b565b60405180910390fd5b6000610c8b836106f0565b90508073ffffffffffffffffffffffffffffffffffffffff168473ffffffffffffffffffffffffffffffffffffffff161480610cfa57508373ffffffffffffffffffffffffffffffffffffffff16610ce2846104b9565b73ffffffffffffffffffffffffffffffffffffffff16145b80610d0b5750610d0a8185610a0b565b5b91505092915050565b8273ffffffffffffffffffffffffffffffffffffffff16610d34826106f0565b73ffffffffffffffffffffffffffffffffffffffff1614610d8a576040517f08c379a0000000000000000000000000000000000000000000000000000000008152600401610d8190611b1b565b60405180910390fd5b600073ffffffffffffffffffffffffffffffffffffffff168273ffffffffffffffffffffffffffffffffffffffff161415610dfa576040517f08c379a0000000000000000000000000000000000000000000000000000000008152600401610df190611b3b565b60405180910390fd5b610e05838383611308565b610e10600082610b7d565b6001600360008573ffffffffffffffffffffffffffffffffffffffff1673ffffffffffffffffffffffffffffffffffffffff1681526020019081526020016000206000828254610e609190611db6565b925050819055506001600360008473ffffffffffffffffffffffffffffffffffffffff1673ffffffffffffffffffffffffffffffffffffffff1681526020019081526020016000206000828254610eb79190611d2f565b92505081905550816002600083815260200190815260200160002060006101000a81548173ffffffffffffffffffffffffffffffffffffffff021916908373ffffffffffffffffffffffffffffffffffffffff160217905550808273ffffffffffffffffffffffffffffffffffffffff168473ffffffffffffffffffffffffffffffffffffffff167fddf252ad1be2c89b69c2b068fc378daa952ba7f163c4a11628f55a4df523b3ef60405160405180910390a4610f7683838361130d565b505050565b8173ffffffffffffffffffffffffffffffffffffffff168373ffffffffffffffffffffffffffffffffffffffff161415610fea576040517f08c379a0000000000000000000000000000000000000000000000000000000008152600401610fe190611b5b565b60405180910390fd5b80600560008573ffffffffffffffffffffffffffffffffffffffff1673ffffffffffffffffffffffffffffffffffffffff16815260200190815260200160002060008473ffffffffffffffffffffffffffffffffffffffff1673ffffffffffffffffffffffffffffffffffffffff16815260200190815260200160002060006101000a81548160ff0219169083151502179055508173ffffffffffffffffffffffffffffffffffffffff168373ffffffffffffffffffffffffffffffffffffffff167f17307eab39ab6107e8899845ad3d59bd9653f200f220920489ca2b5937696c31836040516110db9190611abe565b60405180910390a3505050565b6110f3848484610d14565b6110ff84848484611312565b61113e576040517f08c379a000000000000000000000000000000000000000000000000000000000815260040161113590611afb565b60405180910390fd5b50505050565b606060405180602001604052806000815250905090565b606060008214156111a3576040518060400160405280600181526020017f30000000000000000000000000000000000000000000000000000000000000008152509050611303565b600082905060005b600082146111d55780806111be90611f03565b915050600a826111ce9190611d85565b91506111ab565b60008167ffffffffffffffff811115611217577f4e487b7100000000000000000000000000000000000000000000000000000000600052604160045260246000fd5b6040519080825280601f01601f1916602001820160405280156112495781602001600182028036833780820191505090505b5090505b600085146112fc576001826112629190611db6565b9150600a856112719190611f4c565b603061127d9190611d2f565b60f81b8183815181106112b9577f4e487b7100000000000000000000000000000000000000000000000000000000600052603260045260246000fd5b60200101907effffffffffffffffffffffffffffffffffffffffffffffffffffffffffffff1916908160001a905350600a856112f59190611d85565b945061124d565b8093505050505b919050565b505050565b505050565b60006113338473ffffffffffffffffffffffffffffffffffffffff166114a9565b1561149c578373ffffffffffffffffffffffffffffffffffffffff1663150b7a0261135c610b75565b8786866040518563ffffffff1660e01b815260040161137e9493929190611a72565b602060405180830381600087803b15801561139857600080fd5b505af19250505080156113c957506040513d601f19601f820116820180604052508101906113c6919061176d565b60015b61144c573d80600081146113f9576040519150601f19603f3d011682016040523d82523d6000602084013e6113fe565b606091505b50600081511415611444576040517f08c379a000000000000000000000000000000000000000000000000000000000815260040161143b90611afb565b60405180910390fd5b805181602001fd5b63150b7a0260e01b7bffffffffffffffffffffffffffffffffffffffffffffffffffffffff1916817bffffffffffffffffffffffffffffffffffffffffffffffffffffffff1916149150506114a1565b600190505b949350505050565b6000808273ffffffffffffffffffffffffffffffffffffffff163b119050919050565b60006114df6114da84611cbb565b611c96565b9050828152602081018484840111156114f757600080fd5b611502848285611e5e565b509392505050565b600081359050611519816123d8565b92915050565b60008135905061152e816123ef565b92915050565b60008135905061154381612406565b92915050565b60008151905061155881612406565b92915050565b600082601f83011261156f57600080fd5b813561157f8482602086016114cc565b91505092915050565b6000813590506115978161241d565b92915050565b6000602082840312156115af57600080fd5b60006115bd8482850161150a565b91505092915050565b600080604083850312156115d957600080fd5b60006115e78582860161150a565b92505060206115f88582860161150a565b9150509250929050565b60008060006060848603121561161757600080fd5b60006116258682870161150a565b93505060206116368682870161150a565b925050604061164786828701611588565b9150509250925092565b6000806000806080858703121561166757600080fd5b60006116758782880161150a565b94505060206116868782880161150a565b935050604061169787828801611588565b925050606085013567ffffffffffffffff8111156116b457600080fd5b6116c08782880161155e565b91505092959194509250565b600080604083850312156116df57600080fd5b60006116ed8582860161150a565b92505060206116fe8582860161151f565b9150509250929050565b6000806040838503121561171b57600080fd5b60006117298582860161150a565b925050602061173a85828601611588565b9150509250929050565b60006020828403121561175657600080fd5b600061176484828501611534565b91505092915050565b60006020828403121561177f57600080fd5b600061178d84828501611549565b91505092915050565b6000602082840312156117a857600080fd5b60006117b684828501611588565b91505092915050565b6117c881611dea565b82525050565b6117d781611dfc565b82525050565b60006117e882611cec565b6117f28185611d02565b9350611802818560208601611e6d565b61180b81612039565b840191505092915050565b600061182182611cf7565b61182b8185611d13565b935061183b818560208601611e6d565b61184481612039565b840191505092915050565b600061185a82611cf7565b6118648185611d24565b9350611874818560208601611e6d565b80840191505092915050565b600061188d603283611d13565b91506118988261204a565b604082019050919050565b60006118b0602583611d13565b91506118bb82612099565b604082019050919050565b60006118d3602483611d13565b91506118de826120e8565b604082019050919050565b60006118f6601983611d13565b915061190182612137565b602082019050919050565b6000611919602c83611d13565b915061192482612160565b604082019050919050565b600061193c603883611d13565b9150611947826121af565b604082019050919050565b600061195f602a83611d13565b915061196a826121fe565b604082019050919050565b6000611982602983611d13565b915061198d8261224d565b604082019050919050565b60006119a5602c83611d13565b91506119b08261229c565b604082019050919050565b60006119c8602f83611d13565b91506119d3826122eb565b604082019050919050565b60006119eb602183611d13565b91506119f68261233a565b604082019050919050565b6000611a0e603183611d13565b9150611a1982612389565b604082019050919050565b611a2d81611e54565b82525050565b6000611a3f828561184f565b9150611a4b828461184f565b91508190509392505050565b6000602082019050611a6c60008301846117bf565b92915050565b6000608082019050611a8760008301876117bf565b611a9460208301866117bf565b611aa16040830185611a24565b8181036060830152611ab381846117dd565b905095945050505050565b6000602082019050611ad360008301846117ce565b92915050565b60006020820190508181036000830152611af38184611816565b905092915050565b60006020820190508181036000830152611b1481611880565b9050919050565b60006020820190508181036000830152611b34816118a3565b9050919050565b60006020820190508181036000830152611b54816118c6565b9050919050565b60006020820190508181036000830152611b74816118e9565b9050919050565b60006020820190508181036000830152611b948161190c565b9050919050565b60006020820190508181036000830152611bb48161192f565b9050919050565b60006020820190508181036000830152611bd481611952565b9050919050565b60006020820190508181036000830152611bf481611975565b9050919050565b60006020820190508181036000830152611c1481611998565b9050919050565b60006020820190508181036000830152611c34816119bb565b9050919050565b60006020820190508181036000830152611c54816119de565b9050919050565b60006020820190508181036000830152611c7481611a01565b9050919050565b6000602082019050611c906000830184611a24565b92915050565b6000611ca0611cb1565b9050611cac8282611ed2565b919050565b6000604051905090565b600067ffffffffffffffff821115611cd657611cd561200a565b5b611cdf82612039565b9050602081019050919050565b600081519050919050565b600081519050919050565b600082825260208201905092915050565b600082825260208201905092915050565b600081905092915050565b6000611d3a82611e54565b9150611d4583611e54565b9250827fffffffffffffffffffffffffffffffffffffffffffffffffffffffffffffffff03821115611d7a57611d79611f7d565b5b828201905092915050565b6000611d9082611e54565b9150611d9b83611e54565b925082611dab57611daa611fac565b5b828204905092915050565b6000611dc182611e54565b9150611dcc83611e54565b925082821015611ddf57611dde611f7d565b5b828203905092915050565b6000611df582611e34565b9050919050565b60008115159050919050565b60007fffffffff0000000000000000000000000000000000000000000000000000000082169050919050565b600073ffffffffffffffffffffffffffffffffffffffff82169050919050565b6000819050919050565b82818337600083830152505050565b60005b83811015611e8b578082015181840152602081019050611e70565b83811115611e9a576000848401525b50505050565b60006002820490506001821680611eb857607f821691505b60208210811415611ecc57611ecb611fdb565b5b50919050565b611edb82612039565b810181811067ffffffffffffffff82111715611efa57611ef961200a565b5b80604052505050565b6000611f0e82611e54565b91507fffffffffffffffffffffffffffffffffffffffffffffffffffffffffffffffff821415611f4157611f40611f7d565b5b600182019050919050565b6000611f5782611e54565b9150611f6283611e54565b925082611f7257611f71611fac565b5b828206905092915050565b7f4e487b7100000000000000000000000000000000000000000000000000000000600052601160045260246000fd5b7f4e487b7100000000000000000000000000000000000000000000000000000000600052601260045260246000fd5b7f4e487b7100000000000000000000000000000000000000000000000000000000600052602260045260246000fd5b7f4e487b7100000000000000000000000000000000000000000000000000000000600052604160045260246000fd5b6000601f19601f8301169050919050565b7f4552433732313a207472616e7366657220746f206e6f6e20455243373231526560008201527f63656976657220696d706c656d656e7465720000000000000000000000000000602082015250565b7f4552433732313a207472616e736665722066726f6d20696e636f72726563742060008201527f6f776e6572000000000000000000000000000000000000000000000000000000602082015250565b7f4552433732313a207472616e7366657220746f20746865207a65726f2061646460008201527f7265737300000000000000000000000000000000000000000000000000000000602082015250565b7f4552433732313a20617070726f766520746f2063616c6c657200000000000000600082015250565b7f4552433732313a206f70657261746f7220717565727920666f72206e6f6e657860008201527f697374656e7420746f6b656e0000000000000000000000000000000000000000602082015250565b7f4552433732313a20617070726f76652063616c6c6572206973206e6f74206f7760008201527f6e6572206e6f7220617070726f76656420666f7220616c6c0000000000000000602082015250565b7f4552433732313a2062616c616e636520717565727920666f7220746865207a6560008201527f726f206164647265737300000000000000000000000000000000000000000000602082015250565b7f4552433732313a206f776e657220717565727920666f72206e6f6e657869737460008201527f656e7420746f6b656e0000000000000000000000000000000000000000000000602082015250565b7f4552433732313a20617070726f76656420717565727920666f72206e6f6e657860008201527f697374656e7420746f6b656e0000000000000000000000000000000000000000602082015250565b7f4552433732314d657461646174613a2055524920717565727920666f72206e6f60008201527f6e6578697374656e7420746f6b656e0000000000000000000000000000000000602082015250565b7f4552433732313a20617070726f76616c20746f2063757272656e74206f776e6560008201527f7200000000000000000000000000000000000000000000000000000000000000602082015250565b7f4552433732313a207472616e736665722063616c6c6572206973206e6f74206f60008201527f776e6572206e6f7220617070726f766564000000000000000000000000000000602082015250565b6123e181611dea565b81146123ec57600080fd5b50565b6123f881611dfc565b811461240357600080fd5b50565b61240f81611e08565b811461241a57600080fd5b50565b61242681611e54565b811461243157600080fd5b5056fea2646970667358221220e7d04f7857e46b296576ef5ea80a0ccdd01c1cad288505bcad791551a606a33864736f6c63430008040033",
  "linkReferences": {},
  "deployedLinkReferences": {}
}