{
  "_format": "hh-sol-artifact-1",
  "contractName": "MarketplaceWithRoyality",
  "sourceName": "src/backend/contracts/MartketplaceWithRoyality2.sol",
  "abi": [
    {
      "inputs": [
        {
          "internalType": "uint256",
          "name": "_feePercent",
          "type": "uint256"
        },
        {
          "internalType": "uint256",
          "name": "_royaltyPercent",
          "type": "uint256"
        }
      ],
      "stateMutability": "nonpayable",
      "type": "constructor"
    },
    {
      "anonymous": false,
      "inputs": [
        {
          "indexed": false,
          "internalType": "uint256",
          "name": "itemId",
          "type": "uint256"
        },
        {
          "indexed": true,
          "internalType": "address",
          "name": "nft",
          "type": "address"
        },
        {
          "indexed": false,
          "internalType": "uint256",
          "name": "tokenId",
          "type": "uint256"
        },
        {
          "indexed": false,
          "internalType": "uint256",
          "name": "price",
          "type": "uint256"
        },
        {
          "indexed": true,
          "internalType": "address",
          "name": "seller",
          "type": "address"
        },
        {
          "indexed": true,
          "internalType": "address",
          "name": "buyer",
          "type": "address"
        }
      ],
      "name": "Bought",
      "type": "event"
    },
    {
      "anonymous": false,
      "inputs": [
        {
          "indexed": false,
          "internalType": "uint256",
          "name": "itemId",
          "type": "uint256"
        },
        {
          "indexed": true,
          "internalType": "address",
          "name": "nft",
          "type": "address"
        },
        {
          "indexed": false,
          "internalType": "uint256",
          "name": "tokenId",
          "type": "uint256"
        },
        {
          "indexed": false,
          "internalType": "uint256",
          "name": "price",
          "type": "uint256"
        },
        {
          "indexed": true,
          "internalType": "address",
          "name": "seller",
          "type": "address"
        },
        {
          "indexed": true,
          "internalType": "address",
          "name": "creator",
          "type": "address"
        }
      ],
      "name": "Offered",
      "type": "event"
    },
    {
      "inputs": [],
      "name": "feeAccount",
      "outputs": [
        {
          "internalType": "address payable",
          "name": "",
          "type": "address"
        }
      ],
      "stateMutability": "view",
      "type": "function"
    },
    {
      "inputs": [],
      "name": "feePercent",
      "outputs": [
        {
          "internalType": "uint256",
          "name": "",
          "type": "uint256"
        }
      ],
      "stateMutability": "view",
      "type": "function"
    },
    {
      "inputs": [
        {
          "internalType": "uint256",
          "name": "_itemId",
          "type": "uint256"
        }
      ],
      "name": "getTotalPrice",
      "outputs": [
        {
          "internalType": "uint256",
          "name": "",
          "type": "uint256"
        }
      ],
      "stateMutability": "view",
      "type": "function"
    },
    {
      "inputs": [],
      "name": "itemCount",
      "outputs": [
        {
          "internalType": "uint256",
          "name": "",
          "type": "uint256"
        }
      ],
      "stateMutability": "view",
      "type": "function"
    },
    {
      "inputs": [
        {
          "internalType": "uint256",
          "name": "",
          "type": "uint256"
        }
      ],
      "name": "items",
      "outputs": [
        {
          "internalType": "uint256",
          "name": "itemId",
          "type": "uint256"
        },
        {
          "internalType": "contract IERC721",
          "name": "nft",
          "type": "address"
        },
        {
          "internalType": "uint256",
          "name": "tokenId",
          "type": "uint256"
        },
        {
          "internalType": "uint256",
          "name": "price",
          "type": "uint256"
        },
        {
          "internalType": "address payable",
          "name": "seller",
          "type": "address"
        },
        {
          "internalType": "address payable",
          "name": "creator",
          "type": "address"
        },
        {
          "internalType": "bool",
          "name": "sold",
          "type": "bool"
        }
      ],
      "stateMutability": "view",
      "type": "function"
    },
    {
      "inputs": [
        {
          "internalType": "contract IERC721",
          "name": "_nft",
          "type": "address"
        },
        {
          "internalType": "uint256",
          "name": "_tokenId",
          "type": "uint256"
        },
        {
          "internalType": "uint256",
          "name": "_price",
          "type": "uint256"
        },
        {
          "internalType": "address payable",
          "name": "_creator",
          "type": "address"
        }
      ],
      "name": "makeItem",
      "outputs": [],
      "stateMutability": "nonpayable",
      "type": "function"
    },
    {
      "inputs": [
        {
          "internalType": "uint256",
          "name": "_itemId",
          "type": "uint256"
        }
      ],
      "name": "purchaseItem",
      "outputs": [],
      "stateMutability": "payable",
      "type": "function"
    },
    {
      "inputs": [],
      "name": "royaltyPercent",
      "outputs": [
        {
          "internalType": "uint256",
          "name": "",
          "type": "uint256"
        }
      ],
      "stateMutability": "view",
      "type": "function"
    }
  ],
  "bytecode": "0x60c06040523480156200001157600080fd5b506040516200138e3803806200138e8339818101604052810190620000379190620000a4565b60016000819055503373ffffffffffffffffffffffffffffffffffffffff1660808173ffffffffffffffffffffffffffffffffffffffff1660601b815250508160a0818152505080600281905550505062000109565b6000815190506200009e81620000ef565b92915050565b60008060408385031215620000b857600080fd5b6000620000c8858286016200008d565b9250506020620000db858286016200008d565b9150509250929050565b6000819050919050565b620000fa81620000e5565b81146200010657600080fd5b50565b60805160601c60a05161124e620001406000396000818161056a01526106470152600081816105400152610905015261124e6000f3fe60806040526004361061007b5760003560e01c80639f67756d1161004e5780639f67756d1461012a578063bfb231d214610155578063ca7dd37514610198578063d38ea5bf146101d55761007b565b80632d121be41461008057806365e17c9d146100a95780636bfb0d01146100d45780637fd6f15c146100ff575b600080fd5b34801561008c57600080fd5b506100a760048036038101906100a29190610b4a565b6101f1565b005b3480156100b557600080fd5b506100be61053e565b6040516100cb9190610cd0565b60405180910390f35b3480156100e057600080fd5b506100e9610562565b6040516100f69190610dc2565b60405180910390f35b34801561010b57600080fd5b50610114610568565b6040516101219190610dc2565b60405180910390f35b34801561013657600080fd5b5061013f61058c565b60405161014c9190610dc2565b60405180910390f35b34801561016157600080fd5b5061017c60048036038101906101779190610bad565b610592565b60405161018f9796959493929190610ddd565b60405180910390f35b3480156101a457600080fd5b506101bf60048036038101906101ba9190610bad565b610641565b6040516101cc9190610dc2565b60405180910390f35b6101ef60048036038101906101ea9190610bad565b6106a4565b005b60026000541415610237576040517f08c379a000000000000000000000000000000000000000000000000000000000815260040161022e90610d82565b60405180910390fd5b600260008190555060008211610282576040517f08c379a000000000000000000000000000000000000000000000000000000000815260040161027990610d22565b60405180910390fd5b6001600081548092919061029590611039565b91905055508373ffffffffffffffffffffffffffffffffffffffff166323b872dd3330866040518463ffffffff1660e01b81526004016102d793929190610ceb565b600060405180830381600087803b1580156102f157600080fd5b505af1158015610305573d6000803e3d6000fd5b505050506040518060e0016040528060015481526020018573ffffffffffffffffffffffffffffffffffffffff1681526020018481526020018381526020013373ffffffffffffffffffffffffffffffffffffffff1681526020018273ffffffffffffffffffffffffffffffffffffffff168152602001600015158152506003600060015481526020019081526020016000206000820151816000015560208201518160010160006101000a81548173ffffffffffffffffffffffffffffffffffffffff021916908373ffffffffffffffffffffffffffffffffffffffff160217905550604082015181600201556060820151816003015560808201518160040160006101000a81548173ffffffffffffffffffffffffffffffffffffffff021916908373ffffffffffffffffffffffffffffffffffffffff16021790555060a08201518160050160006101000a81548173ffffffffffffffffffffffffffffffffffffffff021916908373ffffffffffffffffffffffffffffffffffffffff16021790555060c08201518160050160146101000a81548160ff0219169083151502179055509050508073ffffffffffffffffffffffffffffffffffffffff163373ffffffffffffffffffffffffffffffffffffffff168573ffffffffffffffffffffffffffffffffffffffff167fe4ef384ea82c018889dc208d54c1dfda9f0e81eaec76e042966cb59d46fd8d29600154878760405161052893929190610e4c565b60405180910390a4600160008190555050505050565b7f000000000000000000000000000000000000000000000000000000000000000081565b60015481565b7f000000000000000000000000000000000000000000000000000000000000000081565b60025481565b60036020528060005260406000206000915090508060000154908060010160009054906101000a900473ffffffffffffffffffffffffffffffffffffffff16908060020154908060030154908060040160009054906101000a900473ffffffffffffffffffffffffffffffffffffffff16908060050160009054906101000a900473ffffffffffffffffffffffffffffffffffffffff16908060050160149054906101000a900460ff16905087565b600060647f000000000000000000000000000000000000000000000000000000000000000060646106729190610e94565b60036000858152602001908152602001600020600301546106939190610f1b565b61069d9190610eea565b9050919050565b600260005414156106ea576040517f08c379a00000000000000000000000000000000000000000000000000000000081526004016106e190610d82565b60405180910390fd5b600260008190555060006106fd82610641565b9050600060036000848152602001908152602001600020905060008311801561072857506001548311155b610767576040517f08c379a000000000000000000000000000000000000000000000000000000000815260040161075e90610d62565b60405180910390fd5b813410156107aa576040517f08c379a00000000000000000000000000000000000000000000000000000000081526004016107a190610d42565b60405180910390fd5b8060050160149054906101000a900460ff16156107fc576040517f08c379a00000000000000000000000000000000000000000000000000000000081526004016107f390610da2565b60405180910390fd5b6000606460025483600301546108129190610f1b565b61081c9190610eea565b90508160050160009054906101000a900473ffffffffffffffffffffffffffffffffffffffff1673ffffffffffffffffffffffffffffffffffffffff166108fc829081150290604051600060405180830381858888f19350505050158015610888573d6000803e3d6000fd5b508160040160009054906101000a900473ffffffffffffffffffffffffffffffffffffffff1673ffffffffffffffffffffffffffffffffffffffff166108fc8284600301546108d79190610f75565b9081150290604051600060405180830381858888f19350505050158015610902573d6000803e3d6000fd5b507f000000000000000000000000000000000000000000000000000000000000000073ffffffffffffffffffffffffffffffffffffffff166108fc83600301548561094d9190610f75565b9081150290604051600060405180830381858888f19350505050158015610978573d6000803e3d6000fd5b5060018260050160146101000a81548160ff0219169083151502179055508160010160009054906101000a900473ffffffffffffffffffffffffffffffffffffffff1673ffffffffffffffffffffffffffffffffffffffff166323b872dd303385600201546040518463ffffffff1660e01b81526004016109fb93929190610ceb565b600060405180830381600087803b158015610a1557600080fd5b505af1158015610a29573d6000803e3d6000fd5b505050503373ffffffffffffffffffffffffffffffffffffffff168260040160009054906101000a900473ffffffffffffffffffffffffffffffffffffffff1673ffffffffffffffffffffffffffffffffffffffff168360010160009054906101000a900473ffffffffffffffffffffffffffffffffffffffff1673ffffffffffffffffffffffffffffffffffffffff167f8b4c9c8a607d67b321582dd8461041b1dc2ceeca70c8b7f37f8e02095cf2e76d8786600201548760030154604051610af593929190610e4c565b60405180910390a4505050600160008190555050565b600081359050610b1a816111d3565b92915050565b600081359050610b2f816111ea565b92915050565b600081359050610b4481611201565b92915050565b60008060008060808587031215610b6057600080fd5b6000610b6e87828801610b20565b9450506020610b7f87828801610b35565b9350506040610b9087828801610b35565b9250506060610ba187828801610b0b565b91505092959194509250565b600060208284031215610bbf57600080fd5b6000610bcd84828501610b35565b91505092915050565b610bdf81610fbb565b82525050565b610bee81610fa9565b82525050565b610bfd81610fcd565b82525050565b610c0c81611015565b82525050565b6000610c1f601f83610e83565b9150610c2a826110e0565b602082019050919050565b6000610c42603383610e83565b9150610c4d82611109565b604082019050919050565b6000610c65601283610e83565b9150610c7082611158565b602082019050919050565b6000610c88601f83610e83565b9150610c9382611181565b602082019050919050565b6000610cab601183610e83565b9150610cb6826111aa565b602082019050919050565b610cca8161100b565b82525050565b6000602082019050610ce56000830184610bd6565b92915050565b6000606082019050610d006000830186610be5565b610d0d6020830185610be5565b610d1a6040830184610cc1565b949350505050565b60006020820190508181036000830152610d3b81610c12565b9050919050565b60006020820190508181036000830152610d5b81610c35565b9050919050565b60006020820190508181036000830152610d7b81610c58565b9050919050565b60006020820190508181036000830152610d9b81610c7b565b9050919050565b60006020820190508181036000830152610dbb81610c9e565b9050919050565b6000602082019050610dd76000830184610cc1565b92915050565b600060e082019050610df2600083018a610cc1565b610dff6020830189610c03565b610e0c6040830188610cc1565b610e196060830187610cc1565b610e266080830186610bd6565b610e3360a0830185610bd6565b610e4060c0830184610bf4565b98975050505050505050565b6000606082019050610e616000830186610cc1565b610e6e6020830185610cc1565b610e7b6040830184610cc1565b949350505050565b600082825260208201905092915050565b6000610e9f8261100b565b9150610eaa8361100b565b9250827fffffffffffffffffffffffffffffffffffffffffffffffffffffffffffffffff03821115610edf57610ede611082565b5b828201905092915050565b6000610ef58261100b565b9150610f008361100b565b925082610f1057610f0f6110b1565b5b828204905092915050565b6000610f268261100b565b9150610f318361100b565b9250817fffffffffffffffffffffffffffffffffffffffffffffffffffffffffffffffff0483118215151615610f6a57610f69611082565b5b828202905092915050565b6000610f808261100b565b9150610f8b8361100b565b925082821015610f9e57610f9d611082565b5b828203905092915050565b6000610fb482610feb565b9050919050565b6000610fc682610feb565b9050919050565b60008115159050919050565b6000610fe482610fa9565b9050919050565b600073ffffffffffffffffffffffffffffffffffffffff82169050919050565b6000819050919050565b600061102082611027565b9050919050565b600061103282610feb565b9050919050565b60006110448261100b565b91507fffffffffffffffffffffffffffffffffffffffffffffffffffffffffffffffff82141561107757611076611082565b5b600182019050919050565b7f4e487b7100000000000000000000000000000000000000000000000000000000600052601160045260246000fd5b7f4e487b7100000000000000000000000000000000000000000000000000000000600052601260045260246000fd5b7f5072696365206d7573742062652067726561746572207468616e207a65726f00600082015250565b7f4e6f7420656e6f75676820657468657220746f20636f766572206974656d207060008201527f7269636520616e64206d61726b65742066656500000000000000000000000000602082015250565b7f4974656d20646f65736e27742065786973740000000000000000000000000000600082015250565b7f5265656e7472616e637947756172643a207265656e7472616e742063616c6c00600082015250565b7f4974656d20616c726561647920736f6c64000000000000000000000000000000600082015250565b6111dc81610fbb565b81146111e757600080fd5b50565b6111f381610fd9565b81146111fe57600080fd5b50565b61120a8161100b565b811461121557600080fd5b5056fea26469706673582212201d35f40b63023356a5d8ed93aed99af3429084e3f2576e857086cd9776637c4e64736f6c63430008040033",
  "linkReferences": {},
  "deployedLinkReferences": {}
}